:020000040800F2
:1000000030220020AD030008D1030008D30300080C
:10001000D7030008DB030008DF030008000000002E
:10002000000000000000000000000000E3030008E2
:10003000E503000800000000E7030008E9030008EA
:10004000C7030008C7030008C7030008C703000868
:10005000C7030008C70300086D070008C7030008AE
:10006000890700087B070008C7030008C7030008CA
:10007000C7030008C7030008C7030008C703000838
:10008000C7030008C7030008C7030008C703000828
:10009000C7030008C7030008C7030008C703000818
:1000A000C7030008C7030008C7030008C703000808
:1000B000AD070008C7030008C7030008C70300080E
:1000C000C7030008C7030008C7030008C7030008E8
:1000D000C7030008C7030008C7030008C7030008D8
:1000E000C7030008C7030008C7030008C7030008C8
:1000F000C7030008C7030008C7030008C7030008B8
:10010000C7030008C7030008C7030008C7030008A7
:10011000C7030008C7030008C7030008C703000897
:10012000C7030008C7030008C7030008C703000887
:10013000C7030008C7030008C7030008C703000877
:10014000C7030008C7030008C7030008C703000867
:10015000C7030008C7030008C7030008C703000857
:10016000C7030008C7030008C7030008C703000847
:10017000C7030008C7030008C7030008C703000837
:10018000C7030008C7030008DFF80CD007F00AFD1A
:10019000004800475F150008302200200CB5002001
:1001A000019000907648006840F4803074490860FF
:1001B00000BF7348006800F4003000900198401CB4
:1001C0000190009818B90198B0F5A04FF1D16C4892
:1001D000006800F4003010B10120009001E0002020
:1001E00000900098012846D165484030006840F0F2
:1001F00080506349403108606248006840F44040E4
:10020000604908605E48083000685D490831086050
:100210000846006840F4004008600846006840F462
:10022000A05008605848091F0860081F006840F087
:100230008070091F086000BF5148006800F000701E
:100240000028F9D040F20570504908604C48083049
:10025000006820F003004A49083108600846006839
:1002600040F00200086000BF45480830006800F018
:100270000C000828F8D10CBD10B54548006840F4C2
:100280007000434908603E48006840F001003C4966
:10029000086000203A4908310860394800683D4943
:1002A0000840374908603C48091D0860081F00687D
:1002B00020F48020091F0860002031490C310860BB
:1002C000FFF76CFF4FF0006031498039086010BDC6
:1002D00070B500200022022300240221284D083599
:1002E0002D6805F00C0020B1042806D0082834D170
:1002F00007E02A4D2A4E356033E02A4D284E3560FE
:100300002FE01F4D2D1D2D68C5F380541C4D2D1D54
:100310002D6805F03F0154B1224DB5FBF1F5184EA3
:10032000361D3668C6F3881605FB06F209E01B4D3C
:10033000B5FBF1F5124E361D3668C6F3881605FB7F
:1003400006F20F4D2D1D2D68C5F301456D1C6B0088
:10035000B2FBF3F5124E356003E0104D104E3560E0
:1003600000BF00BF064D08352D68C5F303150E4EBE
:10037000705D0B4D2D68C540094E356070BD0000A5
:10038000003802400070004008544007003C024022
:1003900088ED00E0FFFFF6FE103000240024F4009A
:1003A0000000002000127A00040000200648804768
:1003B00006480047FEE7FEE7FEE7FEE7FEE7FEE74A
:1003C000FEE7FEE7FEE7FEE7790200088901000884
:1003D000704700BFFEE700BFFEE700BFFEE700BFBB
:1003E000FEE7704770477047704700002DE9F04105
:1003F00007460D461646B84627E0B5F5805F01DB97
:10040000344618E0042E01DD042000E030460446A6
:1004100005F0010008B101240DE005F0020038B13B
:1004200004F0010008B1012000E00220044602E0CF
:10043000032C00D1012422462946404600F073FDDA
:10044000301B86B2A044281985B2002ED5DCBDE849
:10045000F08110B572B602224FF40871DD48FFF743
:10046000C5FF62B610BD10B502224FF40871D9481D
:10047000FFF7BCFF10BD1CB501217F2006F038F945
:100480004FF46040009001208DF8040000208DF8AA
:10049000060002208DF8050000208DF8070069464F
:1004A000CD4805F087FE7C20009001208DF80400E7
:1004B00000208DF8060002208DF8050000208DF840
:1004C00007006946C54805F075FE0320009000202E
:1004D0008DF8040002208DF805008DF807006946AC
:1004E000BE4805F067FE4FF45870009000208DF86C
:1004F000040002208DF805008DF807006946B84811
:1005000005F058FE4FF44040009000208DF80400A4
:1005100002208DF805008DF807006946B14805F006
:1005200049FE1CBD1CB50121202006F0E1F84FF466
:100530008070009001208DF8040000208DF80600E6
:1005400002208DF8050001208DF807006946A648B5
:1005500005F030FE00224FF48071A34805F0AAFE9A
:100560004FF47A7000F0E8FD012211029E4805F078
:10057000A1FE4FF47A7000F0DFFD1CBD2DE9F041C3
:1005800007460D461646B84629E0B5F5805F01DB03
:10059000344618E0042E01DD042000E03046044615
:1005A00005F0010008B101240DE005F0020038B1AA
:1005B00004F0010008B1012000E00220044602E03E
:1005C000032C00D1012472B622462946404600F091
:1005D000BDFC62B6301B86B2A044281985B2002E3D
:1005E000D3D1BDE8F0812DE9F04107460D4616460E
:1005F000B84629E0B5F5805F01DB344618E0042EEB
:1006000001DD042000E03046044605F0010008B199
:1006100001240DE005F0020038B104F0010008B13A
:10062000012000E00220044602E0032C00D1012456
:1006300072B622462946404600F075FC62B6301B71
:1006400086B2A044281985B2002ED3DCBDE8F08123
:1006500038B5FFF710FFFFF765FF00F0EAF900F08B
:10066000CBFC00F0E7FC00BF9320009004224FF485
:1006700001716846FFF782FF0020009004224FF4CA
:1006800001716846FFF7AFFFBDF800009328EBD17A
:1006900040F201142146542000F0A2FA0124214620
:1006A0005C2000F09DFA582000F03EFA00200090F7
:1006B00004224FF401716846FFF760FF00F0D2F8A2
:1006C000062000F07BF800F00AF900F048F9092054
:1006D00000F074F8072000F071F80A2000F088F8A4
:1006E0001C2000F06BF862B6002038BD704710B5D2
:1006F000FFF7AFFE3748008810BD10B5FFF7B3FE17
:100700003448008810BD2DE9F04107460D461646D5
:10071000B84627E0B5F5805F01DB344618E0042ECB
:1007200001DD042000E03046044605F0010008B178
:1007300001240DE005F0020038B104F0010008B119
:10074000012000E00220044602E0032C00D1012435
:1007500022462946404600F0F9FB301B86B2A044F1
:10076000281985B2002ED5D1BDE8F08110B501F071
:10077000EDF8012005F08FFC10BD10B501F05EF919
:10078000082005F088FC10BD10B50620012181402D
:10079000164A430942F8231000BF01F0CAF90220AB
:1007A00005F079FC062000F009F810BD10B501F045
:1007B00069F80121880707F0EFF810BD00F01F026B
:1007C000012191404209920002F1E022C2F8001199
:1007D0007047000014000020000802400010024092
:1007E00000040240001802400014024080E100E0D2
:1007F0001FB504460121084605F0C3FF4FF08040B5
:1008000006F054FBC820604302902920ADF8040094
:100810000020ADF80C00ADF8060001A94FF08040B3
:1008200006F0F1FB0121880707F0A2F8012211462A
:10083000900707F089F80121880706F06DFC4FF456
:10084000A06004F033FF1C208DF8000002208DF81A
:1008500001008DF8020001208DF80300684604F0C5
:100860002AFF1FBD00B585B00121042005F040FF1F
:100870000121880305F096FF00208DF808008DF80F
:100880000B0002208DF809000120019001A95348B6
:1008900005F090FC0021022006F0CFFA0120039021
:1008A00000208DF810000C208DF8110001208DF82B
:1008B000120003A805F07EFB4FF4A06004F0F6FEE2
:1008C00006208DF8000001208DF801008DF802004F
:1008D0008DF80300684604F0EEFE05B000BD00B5DB
:1008E00085B00121042005F003FF0121880305F0F4
:1008F00059FF00208DF8080001208DF80B00022020
:100900008DF809000820019001A9344805F052FC37
:100910000321022006F091FA0820039000208DF8B0
:1009200010000C208DF8110001208DF8120003A892
:1009300005F040FB4FF4A06004F0B8FE09208DF8EC
:10094000000001208DF8010000208DF80200012038
:100950008DF80300684604F0AEFE05B000BD00B59A
:1009600085B00121042005F0C3FE0121880305F0B4
:1009700019FF00208DF808008DF80B0002208DF87B
:100980000900019001A9154805F014FC012102207D
:1009900006F053FA0220039000208DF810000C207E
:1009A0008DF8110001208DF8120003A805F002FB5C
:1009B0004FF4A06004F07AFE07208DF800000120BB
:1009C0008DF8010002208DF8020001208DF803004F
:1009D000684604F070FE05B000BD0000000802404B
:1009E00000B585B0FB4805F0D7FF0020ADF800004A
:1009F000ADF80400ADF80600ADF808004FF4007043
:100A0000ADF80A001820ADF80C000020ADF80E007B
:100A10000720ADF810004FF48270ADF8020069466F
:100A2000EC4806F005F80121EA4806F0FBF805B0AD
:100A300000BD1CB50121080305F0B4FE01210846E4
:100A400005F056FE05221146E34805F03EFC05225E
:100A50000621E14805F039FC05220721DE4805F0B2
:100A600034FC2020009002208DF804008DF8050051
:100A700000208DF8060002208DF807006946D64850
:100A800005F098FB4020009002208DF804008DF8BE
:100A9000050000208DF8060002208DF80700694649
:100AA000CD4805F087FB8020009002208DF80400DF
:100AB0008DF8050000208DF8060002208DF8070053
:100AC0006946C54805F076FB1020009001208DF89E
:100AD000040002208DF8050000208DF8060001209A
:100AE0008DF807006946BC4805F064FBFFF778FF06
:100AF0001CBD0146B748818100BFB648008900F09F
:100B000001000028F9D0B3488089C0B2704700B511
:100B100002461046FFF7EDFF00BD00B50020FFF7CD
:100B2000E8FF0246104600BD0CB5034600931020B6
:100B3000A94948830B20FFF7EAFF9DF80100FFF762
:100B4000E6FF9DF80000FFF7E2FF0120FFF7DFFF5F
:100B5000FFF7E3FF8DF80400FFF7DFFF8DF80500D6
:100B6000FFF7DBFF8DF80600FFF7D7FF8DF80700D2
:100B700010209949088301980CBD08B503460093DD
:100B80009DF80100FFF7C3FF9DF80000FFF7BFFFCE
:100B900008BD08B5FFF7C1FF8DF80000FFF7BDFFE6
:100BA0008DF80100FFF7B9FF8DF80200FFF7B5FFE0
:100BB0008DF80300009808BD08B5034600939DF822
:100BC0000000FFF7A4FF9DF80100FFF7A0FF9DF8CC
:100BD0000200FFF79CFF9DF80300FFF798FF08BD98
:100BE0001CB503460C460093019410207A494883B3
:100BF0000220FFF78CFF9DF80100FFF788FF9DF8AA
:100C00000000FFF784FF9DF80400FFF780FF9DF8C8
:100C10000500FFF77CFF9DF80600FFF778FF9DF8C1
:100C20000700FFF774FF10206B4908831CBDFCB55B
:100C300006460F46154600200190002400979DF8B7
:100C400000008DF804009DF801008DF805008DF876
:100C50000650C0208DF807004FF441700199FFF74E
:100C6000BFFF00BF4FF44170FFF75EFF01909DF89A
:100C7000070000F080000028F4D14FF44070FFF727
:100C800053FF0190002404E001A8005D3055601C72
:100C9000C4B2AC42F8DBFCBDFCB506460F461546B7
:100CA00000200190002400BF04E0305D01A9085538
:100CB000601CC4B2AC42F8DB4FF440700199FFF7FE
:100CC0008FFF00979DF800008DF804009DF801004B
:100CD0008DF805008DF8065080208DF807004FF440
:100CE00041700199FFF77CFF00BF4FF44170FFF79F
:100CF0001BFF01909DF8070000F080000028F4D150
:100D0000FCBD2DE9F84F804689461446002000902E
:100D100000264FF0804000904FF443700099FFF799
:100D20005FFF00BF4FF44370FFF7FEFE00909DF899
:100D3000030000F080000028F4D1ADF80090ADF879
:100D400002404FF442700099FFF74AFF4FF0004015
:100D500000904FF443700099FFF742FF00BF4FF43B
:100D60004370FFF7E1FE00909DF8000000F00100E5
:100D70000028F4D09DF8010000F01F0A0420FFF7BE
:100D8000D3FE0090AAF1010000F0FF0A09F003076A
:100D9000C7F10400A04201DD204601E0C7F10400D4
:100DA000C5B20DEB070108EB06002A4606F0CFFEA0
:100DB000601B84B27019C6B21020074948830B200B
:100DC000FFF7A5FE0420FFF7D8FE0120FFF79FFEE6
:100DD0001BE000000030014000000240FFF7D9FE98
:100DE0000090042C01DD042000E02046C5B208EB91
:100DF00006002A46694606F0AAFE7019C6B2601BB4
:100E000084B2AAF1010000F0FF0A002CE6D1102004
:100E100086490883BDE8F88F2DE9F84F804689465A
:100E200014460020009000264FF0804000904FF4C0
:100E300045700099FFF7D4FE00BF4FF44570FFF7EF
:100E400073FE00909DF8030000F080000028F4D1AC
:100E5000ADF80090ADF802404FF444700099FFF7F0
:100E6000BFFE4FF0004000904FF445700099FFF72F
:100E7000B7FE00BF4FF44570FFF756FE00909DF897
:100E8000000000F001000028F4D09DF8010000F0FF
:100E90001F0A09F00307C7F10400A04201DD204644
:100EA00001E0C7F10400C5B20020009008EB060184
:100EB0000DEB07002A4606F04AFE20200099FFF7B6
:100EC0008FFEAAF1010000F0FF0A601B84B27019C6
:100ED000C6B21020554948830220FFF718FE202093
:100EE000FFF74BFE18E0042C01DD042000E0204653
:100EF000C5B20020009008EB06012A46684606F0BD
:100F000026FE0098FFF758FE7019C6B2601B84B227
:100F1000AAF1010000F0FF0A002CE4D1102043499F
:100F20000883BDE8F88F70B506460C461546B4F543
:100F3000805F05DB2A4621463046FFF7E2FE04E0EB
:100F4000EAB221463046FFF772FE70BD70B5064624
:100F50000C461546B4F5805F05DB2A46214630462F
:100F6000FFF75AFF04E0EAB221463046FFF794FE4D
:100F700070BD0CB50346009310202C4948830B200C
:100F8000FFF7C5FD9DF80100FFF7C1FD9DF80000CA
:100F9000FFF7BDFD0120FFF7BAFDFFF7BEFD8DF89D
:100FA0000400FFF7BAFD8DF80500FFF7B6FD8DF8D8
:100FB0000600FFF7B2FD8DF8070010201B490883DB
:100FC00001980CBD0EB50020009001900290022205
:100FD00040F602616846FFF72AFE9DF800009DF882
:100FE000011040EA01209DF8021040EA01409DF8FE
:100FF000031040EA01600EBD10B500246420FFF725
:10100000B8FF04466420FFF7B4FF04460848844252
:1010100001D000BFFEE7FFF7D5FF044649F252209A
:10102000844201D000BFFEE710BD00000000024076
:101030002143658700B59BB00121880505F058FB69
:101040000121084605F054FB0121080205F0AAFB26
:10105000002002903448039034480490002005900A
:10106000012006900020079008904FF4006009903E
:1010700080000A9040110B9040020C9000200D90CF
:1010800001200E9000200F90109002A9284804F033
:1010900051FE0121264804F087FE02200090032023
:1010A0008DF8040000208DF807006946214805F0FE
:1010B00081F8002011904FF480301290002013909E
:1010C000149011A804F09CFB002015908DF8580096
:1010D00001208DF8590000201790189019900120D8
:1010E0008DF8680015A910484C3804F05AFB00230D
:1010F000012211460C484C3804F0D9FB01210A4862
:101100004C3804F07FFC012107484C3804F06FFC98
:10111000012105484C3804F08AFB03484C3804F0A0
:1011200022FC1BB000BD00004C2001401600002036
:101130001064024000000240002107E0002200E0AD
:10114000521C41F60A239A42FAD3491C8142F5D334
:10115000704700210AE000BF00BF00BF00BF00BF12
:1011600000BF00BF00BF00BF00BF491C8142F2D3D7
:101170007047704770470020704700207047014655
:10118000002070470020704700207047FD484088CD
:1011900020F00100FB4948800846408820F002000A
:1011A00048800846408820F004004880084640886F
:1011B00020F0080048800846408820F01000488051
:1011C0000846408820F0400048800846408820F0CB
:1011D000200048800846408820F080004880002099
:1011E00070472DE9F34F81B0814600200090002523
:1011F00000248246834600260027804600BF24E064
:10120000E14931F8150002F09DFC0446B4B1A06933
:10121000B0F800A000260EE0711CC8B2214602F012
:1012200013FEA16901EBE00B9BF8000040441FFA9C
:1012300080F8701C86B25645EEDB04E04FF00008E3
:101240002520009006E0681C85B2CF48801E0088EB
:10125000A842D5DC00BF08F107004FEAE00800987B
:1012600050BB002522E0C94931F8150002F06AFCA4
:101270000446ACB1A069B0F800A000260DE0711CD6
:10128000C8B2214602F0E0FDA16901EBE00B9BF83A
:101290000000384487B2701C86B25645EFDB03E08D
:1012A00000272420009006E0681C85B2B748801E05
:1012B0000088A842D7DC00BFF81DC710A9F800704D
:1012C0000298A0F800800098BDE8FE8F0246002139
:1012D000104600BF1BE0AD4B33F81130B3F5D05FC3
:1012E00004D0A3F5D053023B73B904E0A84B5B884C
:1012F00020F8023B08E0A74B5B8820F8023BA54B97
:101300009B8820F8023B00BF00BF4B1C99B29F4B4B
:101310009B1E1B888B42DEDC704710B50246002105
:10132000104600BF1AE0984B33F811306FF4B054F8
:10133000234413B1012B0ED104E030F8023B914C51
:10134000638008E030F8023B934C236030F8023BA6
:10135000924C236000BF00BF4B1C99B28A4B9B1E6E
:101360001B888B42DFDC10BD10B58648807800F00A
:1013700001024FF400418A4804F09CFF81488078C4
:10138000C0F340024FF48041854804F093FF7D484C
:101390008078C0F380024FF40051814804F08AFF46
:1013A00078488078C0F3C00240217E4804F082FF74
:1013B00074488078C0F3001220217A4804F07AFF44
:1013C00070488078C0F340121021764804F072FF14
:1013D0006C488078C0F380120821724804F06AFFDC
:1013E00068488078C0F3C01204216E4804F062FFA0
:1013F00002216C4804F040FF6549498860F3000110
:10140000634841800121674804F036FF60494988FC
:1014100060F341015E4841804FF40071624804F07E
:101420002BFF5B49498860F38201594841804FF4A2
:1014300080715D4804F020FF5549498860F3C3017D
:10144000534841804021584804F016FF50494988CC
:1014500060F304114E4841802021534804F00CFFF2
:101460004B49498860F34511494841804FF4004198
:101470004E4804F001FF4649498860F3861144480C
:1014800041804FF48041494804F0F6FE40494988C4
:1014900060F3C7113E4841804548008800B23D498D
:1014A000888008464088012181EAD030394949883E
:1014B00060F3CF3137484180408820F00C00001D98
:1014C000344948800846408820F030003030488059
:1014D0000846408820F00200801C4880084640886A
:1014E00020F00100401C488008464088800BC04323
:1014F000498860F38E312748418010BD2DE9F041C5
:1015000080460D4616461C46069F17B10520BDE8CD
:10151000F0811DB92748008820801EE0062D05D1E6
:10152000DEB13146204606F02BFB16E0072D08D130
:1015300020460021017017494988C1F380310170AC
:101540000BE0092D07D1204600210170114949887F
:10155000C90B017001E01120D9E70020D7E710B5D1
:10156000FFF776F800F0F9FA01201349087000BF80
:1015700000F005FB104800780128F9D0FFF7B6F815
:10158000002010BD480000201A0000205E0000204E
:101590008C000020B4000020E4000020E8000020BF
:1015A00000080240001002400004024000180240FF
:1015B00016000020BA000020A70500209648006809
:1015C000704730B503469449086815E0018999428F
:1015D00011D10268416802B1516001B10A60002472
:1015E0000460446004898C4D2D682D89AC4201D182
:1015F000894C216030BD40680028E7D100BFF9E781
:1016000030B585480468002504E0258964682846CB
:10161000FFF7D7FF002CF8D100207F49086030BDCC
:101620000146002940D07C48006848B97A480160EA
:101630000020794A12685060774A1268106070473B
:101640007548006800890A8990420BDD0020086017
:101650007148006848607048006801606E48016029
:101660000020ECE76C4802681BE010890B89984267
:1016700001D10120E3E710890B89984209DD106848
:1016800008604A60106808B110684160116000206D
:10169000D5E7506820B951600A6000204860CEE765
:1016A0005268002AE1D100BF0120C8E770B50546A5
:1016B00000262C4607E02046FFF7B2FF06460EB193
:1016C000304670BD283420894FF6FF718842F2D130
:1016D0003046F6E710B5002400204F4908604F4817
:1016E000FFF7E4FF04460CB1204610BD4C48FFF75D
:1016F000DDFF04462046F8E710B520204949088060
:10170000002048804860886044F21F008881464875
:101710000861002048618883086281F84000202029
:1017200042490880002048803E48406848600020C8
:1017300088603C48808988813B4808610020486176
:101740008883086281F8400039490870FFF7C2FFBA
:1017500004460CB1FFF754FF0020364908703649A3
:10176000087036490880364908703649086036499D
:101770000860364908603649086010BD38B5002455
:1017800032480068002845D02B48007800902E4849
:1017900003682C4802682A480178284800882B4DA5
:1017A0002D68A8470446FF2C34D022480078012831
:1017B00011D0022804D0032814D004281AD110E034
:1017C0002348006830B12248006806F037FA00204C
:1017D0001F49086000BF00221146204603F080FD2B
:1017E00008E000BF1848026816480168204603F068
:1017F00077FD00BF00BF00200E4908700F49088028
:101800000F4908700F4908600F4908600A490870BD
:101810000E49086038BD0000E8030020EC030020FA
:101820002801002098090020A0860100DC09002082
:1018300034060020540600205506002058060020DB
:10184000560600205C06002060060020640600208A
:101850006806002010B5F148FFF738FDF04802880F
:10186000F0480188ED48FEF74EFF10BD10B5EE4878
:101870000288EE480188EE48FEF7B8FDEC48FFF715
:101880004CFD10BD10B5EB48406820B9EA4800880F
:10189000401CE9490880E948007850B1E848B0F9AF
:1018A0000000002805DDE6480088401E00B2E4493B
:1018B000088001F009FB10BD30B5E248007800282F
:1018C0003FD1E148007800283BD00021D948808BE7
:1018D000012800D1012181B10020D64A50609083B7
:1018E000DA4A50609083D44A10800120D84A1070A0
:1018F0008007406AD74A106022E0D5480078012866
:101900001ED183075A6A00BFD24B1B68D31AD24C30
:1019100063434FF4FA6493FBF4F4C74B1B8843F61C
:1019200009556B4304EB8310C24B5860C74B58609A
:101930000023C14C2380C74C2360C54C237000BFDB
:1019400000BF30BD10B5FFF70FFD10BD10B5BE488C
:101950000078002871D0FEF7D0FE044600BF04F4E2
:10196000806068B3BD48007828B1B648007810B1EF
:101970000020BB490880AF48008D002804DDAD4839
:10198000008D401EAB490885FFF796FF0120B54941
:101990000870B548007810B1FFF768FF10E0022228
:1019A000A2480188B148FEF721FDA04800889E4A60
:1019B00012881044801E81B20222AC48FEF716FD48
:1019C00004F4006020B19848008808B9FFF774FF5C
:1019D00098484088012801D1FFF7B4FFA448007857
:1019E00048B19A484088012803D098484088222866
:1019F00001D1FFF72FFFFEF780FE044600BF04F47D
:101A00008060C8B18B48408D401C8A494885084693
:101A1000408D8E4948850222844801889348FEF70C
:101A2000E5FC82480088804A12881044801E81B2FA
:101A300002228E48FEF7DAFC00BF10BD10B5002070
:101A40008C4908807F480078002871D08848007849
:101A500020B189480088401C874908808748008851
:101A6000002845DD7E48008884490988884220DDB9
:101A70006D48008800280ADD6E48008D804909897C
:101A8000884204DC6B48008DC01C6A4908856448A4
:101A9000008800280DDD6448008850B96B48008D2F
:101AA00077490989884204DC6848008DC01C674971
:101AB00008855D480088B0B959480088002812DDC3
:101AC000FEF71BFE044600BF04F4006028B964481A
:101AD0000088401C6249088004E0002060490880BA
:101AE0005A49088504E05E480088401C5C4908802B
:101AF0005548007820B95C48007808B1FFF7B6FE79
:101B0000FFF720FF5A48007890B15E48008800280F
:101B10000EDD5C48008858490988884208D1FFF7E3
:101B200099FE58480088012802D1002052490880B7
:101B300010BD10B50020544908804D48007840B1D0
:101B400042484088032804D14E48008808B9FFF76E
:101B500081FE00204849088010BD10B5002401F026
:101B60001DFBFFF7C9FD0020334908803949086093
:101B700037490870012045490870204610BD10B54E
:101B80004248007800B910BD2F48007818B1354898
:101B9000007800283AD12B480078002836D12A480E
:101BA0000078C8B9FEF7A3FD044600BF04F48060C6
:101BB00040B101202B4908702B48007858B1FFF73D
:101BC00055FE08E01848008828B904F4006010B1F8
:101BD00001202449087000BF0620012181402C4AC1
:101BE000430942F8231000BFFFF7ACFE20480078FD
:101BF00008B1FFF72FFE0620012181404209920023
:101C000002F1E022C2F8001100BF00BF01F028FB82
:101C1000FFF7B4FD01F0F0F900BFB4E7EC060020D7
:101C2000EE050020FC050020F0050020FA0500204C
:101C3000A806002098090020B4050020EB0500202C
:101C4000CA050020C8050020E4050020DC090020AA
:101C5000BC050020B805002040420F00CC05002044
:101C6000CE050020C6050020C40500200006002087
:101C7000C5050020D8050020E2050020D005002081
:101C800038060020E0050020DC050020BD0500200E
:101C900080E100E000202449086024490880704762
:101CA00070B504460025E088000B092817D2DFE84C
:101CB00000F01610050F111213140A00204603F04D
:101CC000E7F805460DE0204603F06BFB054608E00B
:101CD00000BF00BF00BF00BF00BF042501E0052515
:101CE00000BF00BF284670BD10B504460E4800680E
:101CF00040B100210C48006801F051FD00200A4964
:101D000008600FE04FF4807005F0C0FF04460CB986
:101D1000072010BD0E220649204605F018FF204678
:101D200003F03FFB0020F4E7C00500206C06002014
:101D3000200A002038B5044602224FF4017168469B
:101D4000FEF751FCBDF8000020400090062001F095
:101D500078FB02224FF401716846FEF70FFC062063
:101D600001F064FB38BD38B5044602224FF401711E
:101D70006846FEF738FCBDF80000204300900620BE
:101D800001F05FFB02224FF401716846FEF7F6FB9B
:101D9000062001F04BFB38BD08B500200090022260
:101DA00040F202516846FEF71EFCBDF800000090AC
:101DB000BDF8000000F40060002805DCBDF800005C
:101DC00000F48050002803DD0020FE49087002E086
:101DD0000120FC49087008BD10B504464FF40060AE
:101DE00000EBC4010822F848FEF7FDFBF64810BDE1
:101DF00038B504464FF480700090E00000F6060508
:101E0000022229466846FEF7B9FB00BF0222294696
:101E10006846FEF7E8FBBDF8000000F4807000287B
:101E2000F4D038BD38B5044600200090E00000F63C
:101E30000605022229466846FEF7A0FB00BF0222E3
:101E400029466846FEF7CFFBBDF8000000F480701D
:101E50000028F4D138BD2DE9F04780460027002541
:101E60000026DA48008841F6FF7188420BDBD7482C
:101E70000088884207DBD5480088884203DBD348C6
:101E80000088884202DA1420BDE8F0870020FFF7BE
:101E9000A3FF04466588268805F00100002801DDBF
:101EA0001720F1E706F00100002801DD1720EBE71D
:101EB000A07900F0010008B916271FE0207900F092
:101EC0000C00042801D0162718E0207900F0020049
:101ED000022801D0162711E0222D01DA16270DE085
:101EE000B5F5807F01DD162708E0B6F5805F01DAE1
:101EF000162703E0B6F5005F00DB16271FBB0120A5
:101F0000FFF76AFF04466588268805F0010000286F
:101F100001DD1720B8E706F00100002801DD1720D9
:101F2000B2E7A07900F0010008B916271EE0207979
:101F300000F00C0008B1162718E0207900F002002C
:101F4000022801D0162711E0222D01DA16270DE014
:101F5000B5F5807F01DD162708E0B6F5805F01DA70
:101F6000162703E0B6F5005F00DB1627002F57D1D8
:101F7000B8F1030F54DD0120954908700320FFF7E5
:101F80002BFF04466588268805F00100002801DD46
:101F9000172079E706F00100002801DD172073E71C
:101FA000A07900F0010010B10DB9042736E0A07946
:101FB00000F0010068B387480088854204D1854855
:101FC000008808B1442D01DD032727E0207900F0C7
:101FD0000C00E0B980480078022805D1B6F5805F92
:101FE00002DBB6F5005F07DB7B48007802280CD0E7
:101FF0007A480088864208D1207900F00200022841
:102000000CD100207249087008E0022706E004277E
:1020100004E015B96F48008800B1032707B11E27F7
:10202000F7BBB8F1020F61DD0220FFF7D5FE0446D1
:102030006588268805F00100002801DD172023E7C8
:1020400006F00100002801DD17201DE7A07900F04F
:10205000010010B10DB9042746E0A07900F001009D
:10206000A8B35F480088854237D15D48008878B3BF
:10207000442D32DC207900F00C0004282BD1564886
:102080000078022805D1B6F5805F02DBB6F5005F67
:1020900009DB5148007802281BD05248008800E034
:1020A00024E0864215D1207900F0400018B10120CB
:1020B0004D49087002E000204B490870207900F07B
:1020C0000200022810D10020414908700CE006E00F
:1020D00003E0022708E0042706E0032704E015B91F
:1020E0003F48008800B1032707B11D2787B9C146C3
:1020F0000AE04846FFF770FE0446E0883B49088046
:1021000009F1010000F0FF09394800788145F0DB52
:102110003846B9E62DE9F04786B0002004900390D8
:102120000290019080464FF0030A4FF0030900240B
:1021300000254FF6FF762F48808906402E4880897B
:10214000064000202D4908802D4908700220FFF725
:1021500043FE0746388823490880387900F002009A
:1021600008B14FF001090320FFF736FE0746388813
:102170001A490880387900F0020008B14FF0010ACE
:10218000164800881349098801FB0A001D4909887F
:10219000884208DD1B4800881B49098808440F490C
:1021A000098888423BDC0D4800880A49098801FB00
:1021B0000A0016490988884235DD14480088144908
:1021C000098827E00C06002004060020F405002002
:1021D000E5050020EE050020F6050020FC050020A6
:1021E000F0050020FA050020C705002002060020A7
:1021F000F205002098090020DC090020FE050020DF
:10220000C60500201A06002014060020180600202B
:10221000160600200844FE490988884203DD1E2076
:1022200006B0BDE8F087FB480088FB49098801FB40
:102230000900FA490988884208DDF8480088F84909
:1022400009880844F3490988884225DCF148008858
:10225000F149098801FB0900F2490988884208DD33
:10226000F0480088F04909880844EA49098888420A
:1022700012DCE8480088E849098801FB0900E449C4
:10228000098888420ADDE2480088E849098808444C
:10229000E0490988884201DD1D20C1E702224FF490
:1022A000186105A8FEF79FF9BDF8140005900422F7
:1022B0004FF41A6102A8FEF796F9029802900422E0
:1022C00040F6A41101A8FEF78EF901980190D848B4
:1022D0004488D8484588BDF8140000F410600028F0
:1022E0004BD0BDF8140000F4C06008B9302097E767
:1022F000BDF8140000F4007030B9BDF8140000F40B
:10230000806008B130208BE78EB106F0040020B960
:10231000BDF8140000F4007038B906F0080030B9B8
:10232000BDF8140000F4806008B1302078E702980E
:1023300048B1C1490298884203D3C9030298884230
:1023400001D936206CE7BDF8140000F4007060B1CC
:10235000BDF8140000F4806038B1019828B1DDE9BF
:102360000101884201D34FF00108B8F1000F04D0F9
:1023700006F0100008B9302052E7B048007820B3CA
:10238000BDF8140000F4106048B9022C05D0032CED
:1023900003D0022D01D0032D50D1302040E7BDF8ED
:1023A000140000F4806028B9032C01D0032D01D162
:1023B000302035E7BDF8140000F4007018BB022C83
:1023C00001D0022D3AD130202AE7BDF8140000F4E4
:1023D0001060C8B990480088002808DD012493489F
:1023E0000088002801DD22250AE0002508E08F484A
:1023F0000088002802DD0024012501E000240025DA
:1024000001208B49888319E083480088002806DD75
:10241000B8F1000F01D0032402E0022400E0002400
:1024200082480088002808DDBDF8140000F48060B0
:1024300008B1032502E0022500E00025032C06D1A7
:102440007B49029848627B490298486208E0022C66
:1024500006D1774902984862029880B2754948626D
:102460007748007818B904B10DB92920D8E604B925
:1024700015B10120734908707248007880B1664830
:102480000088002804DD4FF480606F49088007E071
:1024900066480088002803DD4FF400606A49088020
:1024A000022C05D0032C03D0022D01D0032D08D11E
:1024B0000120664908705848008810B90020624918
:1024C00008805B4844805B48458000206049088064
:1024D000604908806049088060490880B8F1010FB0
:1024E0002CD1DDE90101884212D3DDE90101B0FB05
:1024F000F1F059490880DDE90101B0FBF1F201FB7F
:10250000120040B954480088401C5349088002E03A
:10251000012051490880DDE90101B0FBF1F04C498F
:102520000880DDE90101B0FBF1F201FB120078B196
:1025300047480088401C4649088009E0022C02D127
:10254000012045490880032D02D001204049088020
:1025500000204349088002224FF4846103A8FEF75B
:1025600042F8BDF80C0003902B480088002821DDBC
:10257000BDF80C00F0B10222510204A8FEF733F8B6
:10258000BDF810000490BDF8100070B1BDF8101037
:10259000881CBDF80C10484346F2A7110844491C9A
:1025A000B0FBF1F02F4A108008E0002003902D4985
:1025B000088003E0002004902A4908802948008808
:1025C00010B92948007828B92648008820B1264843
:1025D000007808B91F2023E61A48007840B10E4859
:1025E000008828B11848008840F4806016490880A7
:1025F00000201E4908801E4908801E4908801E4987
:1026000008801E4908701E4908701E4908803BE07A
:10261000FC050020FA050020F00500201A06002025
:10262000140600201806002016060020EE050020E3
:1026300098090020DC090020A08601003406002053
:10264000E5050020E4050020FE050020C805002067
:10265000E0050020E2050020D0050020CE05002086
:1026600036060020F8050020C7050020DA05002006
:10267000D8050020DC050020DE050020CC05002068
:10268000D2050020D4050020F64981F84000F64923
:1026900081F840000885BDF8140000F4007030B3E4
:1026A000029818B90020F149088013E0F04A029915
:1026B000B1FBF2F0052803D20121EC4A118008E0B9
:1026C0004FF6FF7101EA40010A2291FBF2F1E74A5D
:1026D000118000BFBDF8140000F4806038B1DDE95E
:1026E0000101884204D2E1480088E24908801DE0E7
:1026F000DF4A0199B1FBF2F0052803D20121DD4A3E
:10270000118008E04FF6FF7101EA40010A2291FBB7
:10271000F2F1D84A1180D54A118801EBD172D54B1C
:102720001B8803EB6202D34B1A8000BFD24800889B
:10273000002802DD0220FFF775FBD0480088002842
:1027400002DD0320FFF76EFBFFF784F8002067E54A
:10275000FF21CB48007810B1CA4800887047CA48AA
:10276000007828B1C820C94A10800020C84A1080CB
:102770000846F3E70020C7490870C749087070474A
:1027800010B5BD480088002802DD0220FFF730FBAD
:10279000BA480088002802DD0320FFF729FB0C243B
:1027A00044F4806444F40064E14388B2FFF7C2FA61
:1027B0000020B8490870B9490870B3490870B84991
:1027C0000870B8490870B8490880B8490880A74916
:1027D0000880B7490880B7490880A6490880B649EB
:1027E0000880B64908809F4981F84000A7490880C1
:1027F000B3490870B3490870B349087010BD002090
:10280000B1490870704738B505460C460094AF488A
:102810000078A84201D0AD4805704FF6FF708442A1
:1028200008D0BDF80000009002224FF49A7168466B
:10283000FDF7A4FEA54800780090BDF800000090C8
:1028400002224FF498716846FDF798FE38BD2DE9D5
:10285000F04105460F460024A046601E9C490880B2
:1028600001209C49087005F0100040B14FF00108AC
:102870009648007820F010009449087010E09348C2
:10288000007800F0100028B105F00F00012801D0F9
:10289000BDE8F0818D48007800F00F008B4908708A
:1028A00005F00F05894806783007060E7019C6B284
:1028B000442E24D008DC122E0FD0222E10D0242E2D
:1028C00013D0422E22D10AE0482E16D0822E05D0F7
:1028D000842E13D0882E19D112E000BF00BF00BF94
:1028E0000220FFF7B8FA044610E063496348FEF798
:1028F00078FC044604B109E000BF00BF00BF00BF80
:1029000075480078FFF7A7FA044600BF00BF002C07
:102910007ED10020714908803046342E79D01EDCEB
:10292000222877D00EDC142875D006DC112873D04D
:10293000122833D0132870D12AE018286ED021280D
:10294000F9D107E128286AD004DC232868D024289C
:10295000F1D143E031281DD03228ECD12EE14828B6
:1029600064D00CDC42287AD004DC382878D04128A6
:10297000E1D1E3E0432874D04428DCD1F8E0813889
:1029800008284AD2DFE800F0CEBAEFB2494949F54B
:10299000132419E11324FFF732FF15E1FFF7FCF9C7
:1029A0004F48007800B95124BCB900F0C8FD044676
:1029B0004CB9002047490870FEF7DDFB044614B906
:1029C00001204849087044B1FF2C06D041480078E6
:1029D00008B9FEF7D2FB00F005FEF5E0FFF79AFB21
:1029E000044674B900203B4908703F48FEF7C7FB16
:1029F000044634B93C480088FFF7B5F90120314955
:102A0000087094B1FF2C10D03248007858B908E013
:102A1000DBE0D4E0ABE0CBE0A6E0D3E0C9E0C9E086
:102A2000C9E0FEF7AFFBFFF7ABFECDE0FFF790FE8E
:102A300004464CB9002027490870FEF7A5FB044660
:102A400014B901201449087044B1FF2C06D0214864
:102A5000007808B9FEF79AFBFFF78CFEB4E059E066
:102A6000AEE0A9E0DC09002098090020DA0500208A
:102A7000A0860100DE050020F0050020EE05002004
:102A8000E6050020E8050020C8050020D405002048
:102A9000D6050020C6050020C4050020E40500205E
:102AA000CC050020D2050020D0050020CE05002056
:102AB000D8050020DC050020E0050020E20500200C
:102AC000C7050020C505002034060020F6050020BB
:102AD000CA050020EA050020F2050020EC050020D0
:102AE0000C06002012060020FE050020FEF74EFB1B
:102AF000FFF740FE0020FE49087065E0FEF746FB48
:102B00000446FFF737FE0020F949087004B15BE086
:102B1000422600BFFEF736FBFFF732FE0020F449E5
:102B2000087051E0FEF732FB0446FFF723FE002059
:102B3000EF49087004B147E0412600BFFEF722FBD1
:102B40000446FFF71DFE0020E949087004B13BE090
:102B5000212600BF00F046FDFEF70FFB0446FFF7FD
:102B60004EFE31E005E028E0FFF749FE00BF00BF60
:102B700000BFB8F1000F02D03046FEF7FBFADD4887
:102B8000007898B9DC48007800F00C0070B1DB48A0
:102B90000088002803DD0220FFF744F906E0D8484A
:102BA0000088002802DD0320FFF73CF9FE240BE03B
:102BB00000BF00BF00BF00BF00BF00BF00BF00BF1D
:102BC000112401E0122400BF1EE0CB480078022847
:102BD0000DD0042806D0082816D1FEF7D7FAFFF743
:102BE000C9FD00BFFEF7CEFAFFF7CAFD00BF162CE5
:102BF00007D100F0F7FCFEF7C0FA0120BE490870CB
:102C000002E00220BC490870FF2C26D10120BD49FA
:102C10000870BD4806800088122806D0132805D009
:102C2000242808D048280CD106E000BF4FF4FA60F1
:102C3000B649088009E000BF42F22830B349088055
:102C400003E0C820B149088000BF00BFAF4800883A
:102C5000323800B2AD49088049E0A748007800F05A
:102C60000F00A8423BD004B9DFB1A3480078284345
:102C700000F00800A8B1A648007818B1FEF786FA5F
:102C8000FFF778FD9D480088002803DD0220FFF74C
:102C9000AFF806E09A480088002802DD0320FFF71D
:102CA000A7F86CB194480078082802D10420924912
:102CB00008709148007840F010008F49087005E0D6
:102CC00017B13C4645F010058B48057000208D4932
:102CD0000870214688480078FFF795FD07E000203E
:102CE00088490870002184480078FFF78CFD00BFF8
:102CF000CEE570B58348007800287AD000240025FE
:102D0000002682480088002855D17F480088C0F3FB
:102D100007157D480088122806D0132805D02428DE
:102D200012D0482846D11EE000BF7148007808B98B
:102D3000FEF723FA00F056FC6E48007810B1754893
:102D4000068800E0012635E06948007808B9FEF7FA
:102D500019FAFFF715FD6748007810B16D4806882D
:102D600000E0012626E06C48007878B16B480078D6
:102D700008B92D2615E06A48007828B95F48008810
:102D8000002801DD1B260CE01A260AE05B480088BB
:102D9000002801DD1B2604E00825002601205C49EF
:102DA000087036B15248007808B9FEF7EFF9FFF71E
:102DB000E1FC00BF7BE054480088122806D01328AD
:102DC00005D024281DD0482870D131E000BF4848E4
:102DD0000078A8B1002046490870FEF7CCF90446F7
:102DE00044B901204F4908704748007800F00F05AA
:102DF00006E068E0FF2C03D0FEF7BFF900F0F2FB1D
:102E000054E03B48007890B10020394908704648AA
:102E1000FEF7B5F9044624B9012044490870042599
:102E200005E0FF2C03D0FEF7ADF9FFF7A9FC3DE06C
:102E30002F48007818B33848007808B33C48B0F9F8
:102E40000000002831DD3A48B0F900003949B1F9F5
:102E50000010884229DC0020354908803549088067
:102E6000FEF792F9044624B9012029490870082583
:102E70001BE0FF2C19D0FEF789F9FFF77BFC14E06B
:102E80001E48008810B12648007870B1FEF77CF922
:102E9000044624B901201E490870082505E0FF2CCE
:102EA00003D0FEF773F9FFF765FC00BF00BF4DB11B
:102EB0000020144908700EB145F01005314628462F
:102EC000FFF7A1FC00BF70BD10B5062000F0B9FAF5
:102ED00011480078002871D017480088002832DD9A
:102EE000164800881449098888422CDB002027E016
:102EF000EA050020E6050020F6050020F005002088
:102F0000EE050020EB050020EC050020CA0500209E
:102F1000C4050020E8050020C8050020CC050020DD
:102F2000C605002012060020FE050020C505002071
:102F3000D4050020D6050020DA050020D8050020A1
:102F4000FE4908700DE0FE480088FE490988884265
:102F500004DAFB480088401CF94908800120F74941
:102F60000870F648007890B1F748008800280EDD18
:102F7000F6480088F4490988884205DAF348008851
:102F8000401CF249088002E00020EC490870EB4840
:102F9000007838B3EE48008DEE49098988420EDA90
:102FA0000120ED490870ED48B0F9000000281FDD50
:102FB000EB480088401C00B2E949088018E0E64868
:102FC0000078A8B10020E44908700120E04981F8A8
:102FD0004000E248B0F90000002809DD0020E04987
:102FE000088005E0DC48007810B10020DA4908705C
:102FF000062000F01BFA10BD08B5DA480088F8B1C9
:103000000020009002224FF488616846FDF7EBFA39
:10301000BDF800000090BDF8000000F0010070B99C
:10302000D148008800280ADDD048007820B11B2153
:103030000420FFF70CFC08BD0020CD49087000BF3C
:10304000CC48007890B1C948007878B1BB48007886
:1030500020B92C210420FFF7FAFBECE7BE480078EA
:1030600020B91A210420FFF7F2FBE4E700BFE2E7F2
:1030700070B505460C462E46BF48007800285CD047
:10308000BE48007850B1002C07D00120BC49087020
:10309000BC4804800020BC4908807EE02CB301209D
:1030A000B7490870B7480480B8480088122806D08D
:1030B000132805D0242808D0482810D10AE000BFE2
:1030C000FEF75BF800F08EFA09E0FEF75BF8FFF719
:1030D00057FB04E0FEF75AF8FFF74CFB00BF00BFB8
:1030E000AA480088C0F307161CE0A84800881228E8
:1030F00006D0132805D0242807D048280DD108E091
:1031000000BF0120A249087007E00120A149087012
:1031100003E001209549087000BF00BF9B4800787C
:1031200000F00F060020944908700CB146F010061C
:1031300021463046FFF767FB2FE08CB10120904914
:1031400008709048048005F00F009349097801F059
:103150000F01884221DA21462846FFF778FB1CE060
:1031600087480078C8B18C48007800F00F000C2820
:103170000ED17D480088002803DD0220FEF752FEB4
:1031800006E086480088002802DD0320FEF74AFE9C
:1031900000207B4908707B49088070BD38B500204D
:1031A0000090022204216846FDF71DFABDF80000D8
:1031B0000090BDF80000000A79490870022206213B
:1031C0006846FDF710FABDF800000090BDF8000059
:1031D00040F6FF7101EB802072490880FEF7DCFDAC
:1031E000002404E02046FEF703FE601CC4B26C48D5
:1031F00000788442F6DB00F05EF900205F49087039
:103200005D4908705A49087058490870614908704A
:103210006549087053490880494908804949088030
:103220004A49088048490880524908705449087042
:10323000544908805D4908804B49088057490880F7
:10324000012055490870002153480078FFF7DBFA48
:1032500000204E49088056490870FEF71BFD38BD16
:103260001CB5002001900120009000F02BFC484884
:10327000007840B1022240F60E016846FDF7B3F92E
:10328000BDF800000090FDF732FA044600BF04F0DC
:10329000010098B13848007880B902224FF490714B
:1032A00001A8FDF7A0F9BDF80400019024F0110475
:1032B000BDF80410C8B20021FFF7C9FA04F01000ED
:1032C000B0B12D48007898B93348007800F010006C
:1032D00070B93148007820F01000012808D024F09F
:1032E00010042D49097801F00F000021FFF7AFFA13
:1032F0002148007808B1FFF7FCFC25480078002839
:1033000079D0BDF8000000F0010030B922490978F9
:1033100001F00F000021FFF79AFA04F4007058B191
:103320000020244908800222234801882148FDF713
:1033300025F924F4007441E042E00000CC050020AF
:10334000D8050020DA050020DE050020DC0500207D
:103350009809002038060020D2050020D40500205E
:10336000D6050020F8050020F0050020C405002047
:10337000C6050020C8050020EB050020EA05002056
:10338000E6050020E8050020CA050020EC05002025
:1033900012060020C5050020F6050020EE050020DD
:1033A000F2050020F4050020C7050020FE050020DE
:1033B000E4050020000600201A06002000F096FA1E
:1033C000BDF8000000F0020010B12248007838B1CA
:1033D000BDF8000000F00200E0B91E480078C8B156
:1033E00000F0CAFA1B48007830B1BDF8000040F484
:1033F0000070009005E018E0BDF8000020F40070B7
:103400000090BDF800000090022240F60E016846D0
:10341000FDF7B4F8FDF76BF9044600BF04F48070C3
:1034200018B124F4807400F0D0FA1CBD00F01F0223
:10343000012191404209920002F1E022C2F80011FC
:10344000704700F01F0201219140034A430942F8EE
:10345000231070471306002080E100E010B50346FA
:103460004888401C82B28888904200D10022088897
:10347000904201D1072010BD4C8801F1080040F8AE
:1034800024304A800020F6E710B501460A884B88B0
:103490009A420ED00A8801F1080353F82200531C07
:1034A0009AB20A800B888C88A34201D100230B803A
:1034B00000E0002010BD08B52220F74908804FF435
:1034C0008070F64908800001F5490880F5490880B8
:1034D0000020F549088048800A2088800020F349B0
:1034E000088048800A2088800020F1490860F1495E
:1034F0000860F1490860F1490860F14908700090DE
:10350000022240F60E016846FDF76DF8BDF8000096
:1035100020F400700090022240F60E016846FDF78C
:103520002DF80020E7490870E7490870E74908705E
:10353000E7490870E7490870E749087008BD70B5A9
:1035400000250020FEF748FC04466088D249088028
:103550002088D34908800120FEF73EFC044660889D
:10356000CE4908802088CF490880CD480088CA49C4
:1035700009880844CB49098888420ADDC94800887F
:10358000C64909880844C6490988884201DD1620D1
:1035900070BD0020FEF746FC0120FEF743FCBE484C
:1035A000008804F073FBC24908600846006880B9CF
:1035B0000120CA4908700A2004F068FBBC49086071
:1035C0000846006800B90225B948006804F036FBD7
:1035D00006E00020C1490870B548006804F02EFBE1
:1035E0002846D5E738B50020B6490870FEF700FC3C
:1035F0000120FEF7FDFBAF48006818B1AD48006838
:1036000004F01CFBAD48006848B1AC480068A9490B
:103610000968884203D0A948006804F00FFBA64857
:10362000006878B1A4480068A2490968884209D0B6
:10363000A1480068A1490968884203D09E480068F3
:1036400004F0FCFA00209B4908609B4908609B49F4
:1036500008609B4908700090022240F60E016846FF
:10366000FCF7C1FFBDF8000020F4007000900222BA
:1036700040F60E016846FCF781FF00209249087071
:1036800092490870924908709249087092490870EE
:1036900000BF8548FFF7F8FE04461CB1204604F041
:1036A000CDFA0024002CF4D100BF8048FFF7ECFED7
:1036B00004461CB1204604F0C1FA0024002CF4D1C9
:1036C00038BD70B50546A888C0F30320032804D18F
:1036D0002846FEF7E5FA044601E0022400BF00BFD9
:1036E000204670BDF8B504467D48007800F00F0014
:1036F000012801D1F020F8BD7248007808B9F02007
:10370000F9E77148007808B10720F4E72588A81D7B
:1037100082B2644801882046FCF730FF0020009008
:10372000022240F60C016846FCF75DFFBDF8000080
:103730000090BDF8000000F40060F8B95748017827
:10374000A81D081AC6B2002066490880022E09DAB0
:10375000A81D40084700C6F10202E119614804F0C3
:10376000F6F900BF4F4800884C4A12881044801E6A
:1037700081B202225B48FCF701FF00BF4E4800689F
:1037800018B100204A49086002E0574848490860DB
:103790004948046001204C4908700020ABE770B52F
:1037A00004460D4600264E48007800F00F00012820
:1037B00001D1F02070BDA08820F47040A080464860
:1037C000007800F0070010B9012043490870A08874
:1037D0004149097840EA0130A0802046FFF782FF86
:1037E00070B132492046FFF739FE064616B145F062
:1037F00080050AE038480078401C3749087004E02A
:1038000035480078401C3449087005F0800030B11C
:1038100005F07F002E49097808432D49087030468D
:10382000C8E72DE9F04104460026A0880513278843
:10383000B7F5807F0EDD04202080A08820F4706022
:10384000A0800120E0800821218100212046FFF78F
:10385000A6FF1EE01DB11F480078854215D01D4807
:10386000057011492046FFF7F9FD06468EB1042088
:103870002080A08820F47060A0800120E080268154
:1038800000212046FFF78BFF03E0204604F0D6F925
:103890000024BDE8F0810000160600201406002078
:1038A000180600201A0600206409002030090020B4
:1038B0002006002028060020240600202C060020D8
:1038C000130600201206002011060020100600201A
:1038D0001E0600201C0600201D06002030060020C9
:1038E000F6050020000600203008002010B500205A
:1038F000864908708648006848B18648006830B933
:103900008348006804F09AF90020814908608248E1
:1039100000687F4908607F48006838B17D480068CA
:10392000FFF7E0FE00207B49086008E07B48FFF7D6
:10393000ABFD044614B12046FFF7D4FE00BF784823
:103940000078C0B17648007800F0020098B10024F9
:103950007348007820F002007149087071480068CF
:10396000FEF7C2F904462CB16D48007840F0020021
:103970006B49087000BF10BD10B565480068D8B12C
:10398000634804686148007878B16248006860B9AB
:103990000120FEF72DFA604800685E4908600120AA
:1039A000FEF740FA0020594908702046FFF79AFEBA
:1039B00000205749086000BF5B48007808B9012023
:1039C00000E000205849087010BD1CB5022257487D
:1039D000018801A8FCF707FEBDF8040001905448D7
:1039E000007801281AD10A2004F050F90446A4B145
:1039F000002020606060208104202080A08820F4C6
:103A00007060A0800120E0800721218100212046F4
:103A1000FFF7C5FE204604F011F900BFBDF8040011
:103A2000801D80B201903948007810B93C48007878
:103A300018B101203F49087042E000203D4908705C
:103A4000BDF804003C490988884202DD3A480088F4
:103A500001903948008804F019F932490860084695
:103A6000006818B90120334908701CBDBDF8042056
:103A70002E4801882B480068FCF7B5FD0020009017
:103A8000022240F604016846FCF7ADFDBDF80000D7
:103A90000090BDF8000000F4006068B100202749E4
:103AA000088022480088244A12881044801E81B26F
:103AB00002222248FCF797FD1A480068FFF7B1FE82
:103AC00000BFD2E770B5002400BF00251C48FFF7F7
:103AD000DBFC04461CB12046FFF7F3FD054665B14B
:103AE00004202080A08820F47060A0800120E08065
:103AF000258100212046FFF752FE002CE5D10D481C
:103B0000007808B1FFF761FF70BD000011060020CA
:103B1000280600202C060020240600203009002062
:103B20001E06002020060020130600201806002094
:103B30003006002010060020160600200006002097
:103B40006409002070B50546FDF738FD044605E020
:103B50002089A84201D1204670BD6468002CF7D1AD
:103B60000020F9E72DE9F04184460C461E46908975
:103B7000C0F30323177B00212EB3072B02D10020B3
:103B8000BDE8F081082B0BD1906907781069008996
:103B900000FB07F1C81DC10804B9891C0846EFE7FE
:103BA000012508E005EB4508106900EB4800408856
:103BB0000144681CC5B2BD42F4DDC81DC10804B98A
:103BC000891C0846DCE7072B04D110694088C01D1A
:103BD000C010D5E70CB90120D2E7082B04D1106939
:103BE0000089C01DC010CBE704EB4405106900EB51
:103BF00045004088C01DC010C2E710B53023837057
:103C0000642391FBF3F3047823440370642391FB52
:103C1000F3F403FB1413DAB20A2392FBF3F34478B0
:103C2000234443700A2392FBF3F403FB14238478A8
:103C30002344837010BD30B502469489C4F3032336
:103C4000082B05D109B9106907E01469A01D04E02B
:103C500001EB4105146904EB450030BD2DE9F04747
:103C600005462020A8401FFA80F9FDF7A7FC04466E
:103C70004FF000081FE02089B0F5805F1ADB2E4668
:103C800096B194F80CA000270AE0F9B22046FFF79D
:103C9000D2FF808800EA090000B10026781C87B2B4
:103CA0000EB15745F1DD00BF1EB908F101001FFA42
:103CB00080F800BF6468002CDDD14046BDE8F08785
:103CC0002DE9FC5F05460E4617469846DDF830B0F4
:103CD0002020A84080B201903088B0F5805F0AD1E2
:103CE000FDF76CFC044644B9BBF1000F05D01B2066
:103CF0008BF8000001E0FB4804688CB32DE02089BC
:103D0000B0F5805F28DBA946B9F1000F19D0207B00
:103D100000904FF0000A0DE051462046FFF78BFF60
:103D200080880199084008B14FF000090AF10100AC
:103D300000F0FF0AB9F1000F02D000988245EBDDD8
:103D400000BFB9F1000F06D12089A8F8000008F1E2
:103D50000208B81E87B200BF64680CB1012FCEDC28
:103D600014B12089308002E04FF6FF703080DD48CA
:103D700004603846BDE8FC9F2DE9FF5F0F46904682
:103D80001C460026D8F81490B8F80C00C0F3032B9A
:103D900017B1BBF1070F0BD1484603F0FCFE86B20A
:103DA000002C49D032464946204603F0D0FE43E07D
:103DB000BBF1090F2ED14FF0010A0397484603F0DB
:103DC000EAFE401C00EB090519E0039882450DD17D
:103DD000284603F0E0FE86B234B12EB132462946C1
:103DE000204603F0B4FE00E0002611E00AF10100D5
:103DF0001FFA80FA284603F0CEFE401C05440398C3
:103E0000824505DC2878FF2802D02878FE28DCD1FE
:103E100000BF00BF86B90C2674B1B34B0FCB8DE841
:103E20000F0039460DF10900FFF7E7FE0D22694644
:103E3000204603F08CFE00BF304604B0BDE8F09F82
:103E4000014601F10A007047F0B504460D46002115
:103E5000A889C0F30326002C02DD01F1100081B215
:103E6000072E01D10020F0BD01236CE0082E02D105
:103E70002869821D04E003EB4307286900EB470231
:103E800010881F281FD00ADCA0F10300092851D296
:103E9000DFE800F016325017313350501A00B0F5F9
:103EA000187F12D006DC202829D02E280AD02F28EF
:103EB00040D123E0A0F2622010B301283AD120E0E3
:103EC00000BF00BF00BF00BF00BF01F10F004FF6F1
:103ED000F07700EA0701A3420CDA10880B2803D020
:103EE0001088B0F5187F02D15088084481B201F1E2
:103EF000100081B224E000BF00BF00BF00BF00BFC0
:103F000000BF01F11F004FF6E07700EA0701A3426E
:103F10000FDA108840F26227B84203D010887F1C65
:103F2000B84203D15088084481B202E001F1200078
:103F300081B205E0A34202DA5088084481B200BF92
:103F400000BF581C83B2A34290DD08468BE70246AF
:103F5000022940D003DC39B101296ED106E00329E2
:103F600052D0222969D125E00020704741F6324025
:103F700082420BD15D480088002807DD5C48007B49
:103F800000F00200002801DD0020EEE741F633409A
:103F900082420ED15748007B00F00200002808DD65
:103FA0005248008828B954480088002801DD0020C4
:103FB000DBE742E041F6334082420BD14D48007BC3
:103FC00000F00200002805DD48480088002801DDD7
:103FD0000020CAE731E041F63240824207D144482E
:103FE000007B00F00400002801DD0020BDE741F661
:103FF0003340824207D13F48007B00F00400002894
:1040000001DD0020B1E718E041F63240824207D1DD
:104010003748007B00F00800002801DD0020A4E7FD
:1040200041F63340824207D13248007B00F008005D
:10403000002801DD002098E700BF00BF122094E7B0
:104040002DE9FF4F87B0824689461F46149CC8461B
:10405000B889C0F303200690387B0590CDF8109006
:104060000698072805D0BAF5805F02DBB8690078AA
:104070000590159860B10698072802D0BAF5805FC0
:1040800003DA05200BB0BDE8F08F059804901EE020
:104090000598814501DD1120F4E708F0FF0138465D
:1040A000FFF7C9FD0546A88888B11448007800F0DC
:1040B0000F00297901F00701B0EB410F07DD2879E6
:1040C00000F0070008B90620DCE71A20DAE7F869F3
:1040D000B0B1159800902346FE6949465046099AAA
:1040E000B047CFE77006002044060020F00500200E
:1040F00098090020DC090020EE050020F6050020CC
:10410000BAF5805F4BDAB9F1000F48D0BE69494675
:104110003846FFF790FD05466888C01D4FEAE00B62
:104120000396A9F10100039E56F8206006F00100F5
:1041300040B30020B1B221F0010600BF0BE031888E
:10414000090A21802188B27841EA02212180A41C39
:10415000B61C411C88B20BEBDB72B0EB620FEEDBDE
:1041600059460BEBD1725210ABEB4202012A08D137
:10417000218801F47F4121802188328841EA12217F
:1041800021800BE03088208070886080241D361DDF
:10419000ABF104023146204603F0D9FC93E1002044
:1041A00003900290C84685E1D7F818B00026B8F110
:1041B000000F08D0BAF5805F05DB08F0FF00394634
:1041C000FFF742FE064630110BEB400B08F0FF01F3
:1041D0003846FFF730FD0546FE48007800F00F0036
:1041E000297901F00701B0EB410F7CDCC84504D010
:1041F0001598002878D0C84576DBB8F1000F06D1B5
:104200000698072803D005982080A41C24E128885C
:1042100000902888B0F5E06F12DB6888082804DC7D
:1042200068882F3080B200900AE06888102802D198
:104230000620009004E06888202801D10720009023
:1042400000981F287ED013DC1F287CD2DFE800F006
:104250003A535D8F9F5E909EA0E4C5C6FEFEFEFEB3
:10426000FEB0FEFEFEB1FEFEFEFEFEB2FEFE5F00F2
:10427000342845D012DC30283ED008DC202874D009
:104280002D2841D02E2874D02F285CD181E03128F0
:1042900033D0322832D03328F7D130E0B0F5187F50
:1042A00072D006DC35282CD036282BD03728ECD11C
:1042B00029E0A0F26120002867D001286FD00228F1
:1042C000E3D18FE0159898B1A87800F00F0000288E
:1042D00005DDA878304400F00F0000B9A41CA878D0
:1042E000C0F3031001E0B8E0E0E004EB400401E0BB
:1042F0001820C7E6ACE000BF00BF00BF00BF00BF92
:1043000000BF00BF00BF00BF00BF00BF00BF002054
:104310006988B14A32F8111006F00F02914089B253
:104320000191BBF8000006F00F0109B900212180BE
:1043300021882180159939B12188019A02401143C1
:10434000218009E016E081E00199014006F00F02AA
:10435000114122881143218021882180A97831448C
:1043600001F00F0101B9A41C72E013E001E000BFED
:1043700000BF00BF06F00F0008B1052082E6BBF8C1
:1043800000002080A41C63E029E029E000BF00BFFA
:1043900000BF00BF06F00F0010B1052072E620E05C
:1043A000BBF800002080BBF802006080241D4FE0B5
:1043B00000BF00BF06F00F0008B1052062E6BBF8A1
:1043C00000002080BBF802006080BBF80400A080E1
:1043D000BBF80600E08008343AE000BF00BF00BF31
:1043E00000BF00BF06F00F0008B105204AE668884C
:1043F000C01DC2105946204603F0A9FB688820F072
:104400000F000F30001104EB4004A87800F00F00FB
:1044100008B1207820801BE006F00F0008B10520CD
:1044200030E66888C01DC2105946204603F08FFB55
:10443000688820F00F000F30001104EB4004A878CA
:1044400000F00F0008B12078208001E0182019E664
:1044500000BF0120039000BF28E0002006F00F01FC
:1044600009B900212180A97801F00F01002907DD99
:10447000A978314401F00F0111B9A41C0021218059
:10448000002004E0A41C00212180411CC8B2A978AE
:10449000C1F303118142F5DC297901F0070111B95B
:1044A0000621029101E01A21029100BF08F10100EA
:1044B0001FFA80F8049880457FF776AE039808B914
:1044C0000298DFE500BF0020DCE52DE9FF4F89B051
:1044D00006468B469A46169CD846BAF80C00C0F39E
:1044E00003200890002007909AF80C000690002006
:1044F0000590CDF810B0089807281BD0DAF81800FE
:10450000007807900798A8B941F61040864203DB6F
:1045100041F62F4086420BDDB6F5B05F02DBB6F503
:10452000C05F05DBB6F5D05F04DBB6F5E05F01DA0E
:1045300006980790179880B10898072803D105209E
:104540000DB0BDE8F08FBBF1000F03D10B9808B19F
:1045500020780790079804901BE00798834501DDB9
:104560001120EDE759465046FFF765FB054619480F
:10457000007800F00F01287900F03800B1EBA00FAF
:1045800007DD287900F0380008B90720D8E71A209D
:10459000D6E7BBF1000F1ADD41F61040864203DB7F
:1045A00041F62F4086420BDDB6F5B05F02DBB6F573
:1045B000C05F05DBB6F5D05F09DBB6F5E05F06DA74
:1045C000DAF81810087808B10121059100BFDAF86F
:1045D000200003E0F60500201886000848B117986F
:1045E00000902346DAF82070594630460B9AB847B7
:1045F000A6E700200390072002900B9808B900203E
:104600009EE7D846B2E1DAF818704FF0000908F0DA
:10461000FF015046FFF70FFB054608F0FF0051462B
:10462000FFF712FC8146D748007800F00F00297987
:1046300001F03801B0EBA10F6FDCB8F1000F03D02F
:104640004FEA291007EB4007D84504D017980028F7
:104650007ED0D8457CDBB8F1000F0CD10898072834
:1046600009D021780698884201DA132068E720886B
:104670003880A41C5DE1288800902888B0F5E06FA0
:1046800012DB6888082804DC68882F3080B200902C
:104690000AE06888102802D10620009004E06888AB
:1046A000202801D10720009000981F2877D013DC24
:1046B0001F2875D2DFE800F03B535D94DB5E95DA8E
:1046C000DCF4F3F27474747474FB747474FC7474B6
:1046D000747474FD74745F00342845D012DC302883
:1046E0003ED008DC202878D02D2841D02E2879D043
:1046F0002F2855D1BDE0312833D0322832D033288D
:10470000F7D130E0B0F5187F69D007DC35282CD020
:1047100036282BD03728ECD129E00DE1A0F261201A
:1047200000287CD001287BD00228E2D1E9E017984C
:1047300090B1A87800F00F00002805DDA878484463
:1047400000F00F0000B9A41CA878C0F3031000E02B
:1047500008E104EB400401E01820F1E6E7E000BFC7
:1047600000BF00BF00BF00BF00BF00BF00BF00BF51
:1047700000BF00BF00BF00216888834A32F81000E4
:1047800009F00F02904080B201903988019881436E
:10479000179830B12088019A1040014315E022E0BB
:1047A000C3E020886A88784B33F81220904308B120
:1047B0001220C5E620886A88734B33F81220104017
:1047C00009F00F029040084381B23980A87848442C
:1047D00000F00F0000B9A41CA9E04BE002E08DE05E
:1047E00000BF00BF00BF09F00F0008B10520A7E619
:1047F0002388059820B13888984201D01C209FE674
:1048000041F61040864215DB41F62F40864211DC0E
:10481000B3F5B05F02DBB3F5C05F0BDB01E06EE028
:104820006EE0B3F5D05F02DBB3F5E05F02DB0BB106
:10483000122085E641F63240864202D0401C864274
:1048400011D1B8F1010F0ED13888984208D019461D
:104850003046FFF77CFB0290029808B102986FE6A1
:1048600001204A4908703B80A41C60E000BF00BFE3
:1048700000BF00BF09F00F0008B1052060E60598F1
:1048800078B138882188884203D178886188884245
:1048900007D01C2054E60CE00AE008E02DE02BE0F5
:1048A00016E02088388060887880241D3FE000BFB3
:1048B00000BF09F00F0008B1052041E620883880CC
:1048C00060887880A088B880E088F88008342EE07E
:1048D00009F00F0008B1052032E66888C01DC2103B
:1048E0002146384603F033F9688820F00F000F3076
:1048F000001104EB40041AE000BF00BF00BF00BF7E
:1049000000BF09F00F0008B1052019E66888C01D36
:10491000C2102146384603F01AF9688820F00F00CB
:104920000F30001104EB400401E0182008E600BF3E
:1049300000BF0120039015E0B8F1000F01D1A41CC5
:104940000EE0A87800F00F00002805DDA8784844A4
:1049500000F00F0000B9A41C6888000904EB4004B3
:104960001820029008F101001FFA80F80498804591
:104970007FF749AE039808B90298E1E500BF00202F
:10498000DEE50000F6050020188600083406002049
:104990002DE9FC41044600270025207A00F0100094
:1049A000FE490978884201D10127E4E0FC480088EB
:1049B00009381FFA80F8207A00F01000F7490870D3
:1049C000F848006800286FD0F7480068F749096880
:1049D000451A207A00F00100C8B1454515D8208855
:1049E000C11EA94206D3217AC1F34201C1F10701D8
:1049F000A94204D0072D06D9C11EA94203D1002126
:104A0000EB4A117000E00E2709E00E2707E00120B5
:104A1000E7490870454501D80E2700E04546002FBC
:104A20007ED10026E148007800F0010070B3DF4835
:104A300000684008DB49096811F81000DB49096883
:104A40004908D84A126822F81100D848006840087E
:104A5000D449096831F81000218901F47F410843E5
:104A6000D24909684908CF4A126822F811006A1E23
:104A7000CE490968012303EB5101CA4B1B6803EBC4
:104A8000410004F10A0103F062F826E0A17A2089CE
:104A9000001261F30F20C54909684908C14A12682C
:104AA00022F81100012614E063E004F10A0010F876
:104AB0001620711E30F81100001262F30F20BB495E
:104AC000096806EB5101B74A126822F81100701C00
:104AD00086B2681CB6EB500FE7D3B54800780028C3
:104AE00046D1B4480078AF490968CDE90010B24812
:104AF0000368AD480268B1480178B1480088FFF703
:104B0000E4FC0746FF2F2CD10220AE490870A948CB
:104B10000078AD490870A9480078AC49087000E0F9
:104B200028E0A7480088AA4908809F480068A9494A
:104B300008609C480068A84908609F480068006AAF
:104B4000A64908600120A6490870A6480460002014
:104B500097490870A449087094490860FF20BDE88F
:104B6000FC819048006803F069F800208D490860D6
:104B700000E0032700BF0FBB0A202080E08820F45C
:104B80007040E080E08840F44050E0808348007846
:104B900010B13020208101E020202081844800785D
:104BA000012805D18148006828448049086017E041
:104BB00000207E4908608C49087011E000207C4983
:104BC0000870894908707748006830B175480068F6
:104BD00003F034F80020734908600020734908602E
:104BE0003846BCE72DE9F04106464FF00008344650
:104BF000307A00F0100069490978884202D14FF0FC
:104C00000108AEE0002579480088093887B2307A7B
:104C100000F0100061490870644800683844624937
:104C20000968884208D96048006860490968451ADF
:104C300000205F49087003E03D4601205C49087090
:104C4000207A20815948007800F00100D0B12089F5
:104C5000564909684908534A126832F8111001F49C
:104C60007F41084320816A1E50480068012303EBFE
:104C700050004C4B1B6803EB400104F10A0002F0AA
:104C800066FF2FE00020494A126851082289474BED
:104C90001B685B08DFF80CC1DCF800C03CF813307F
:104CA0004FF47F4C0CEA03231A43228100BF15E026
:104CB00042183C4B1B6833F81220130A4218521C4E
:104CC000DFF8E0C0DCF800C01CF8122043EA022341
:104CD00004F10A0222F81030421C90B2B0EB550FDA
:104CE000E6D300BFE08820F47040E080E08840F424
:104CF0004050E080208920F0FF0020812C4800787F
:104D000028B12089254909780843208106E02089B7
:104D10002249097841F0010108432081072D08D27A
:104D20000A2020802089C5F1070140EA4100208146
:104D300001E0E81C20801E480078012805D11B48AE
:104D400000682844194908600AE01648006802F023
:104D500075FF002013490860144908602249087053
:104D600000BF4046BDE8F0812DE9F04707460E46FA
:104D700090469946DDE90854602E04D01EB1208982
:104D800000F47F402081002F69D1E08820F470403A
:104D9000E080E08840F44050E08029E08406002074
:104DA00016060020680600208806002080060020E5
:104DB0007A0600207B0600208C0600207E0600205C
:104DC0007C060020540600205506002056060020D0
:104DD000580600205C0600206006002064060020C3
:104DE00078060020740600207906002014060020B2
:104DF000402E23D1042D0FD875B10A20208048F011
:104E00000300E9B2C1F1040140EA810040F0400032
:104E100021890843208132E0A94503D209F10A0023
:104E2000208002E005F10A002080A581290CE181A3
:104E3000208948F041010843208120E036B90A204A
:104E40002080208940F02000208118E0602E16D0BC
:104E50000A202080208940F0600020810FE00A2095
:104E60002080E08820F47040E080E08840F400502A
:104E7000E08080202081F84850F82700E06002217F
:104E80002046FEF78CFC08B1F4480460BDE8F087CA
:104E90002DE9F04F89B0044600200890267A06F0EC
:104EA000E007208807904FF0000BD84600200690BE
:104EB000EB48007818B1092009B0BDE8F08F002F49
:104EC00075D0202F04D0402F03D0602F70D1B3E1D4
:104ED00000BF94F80A904FF6FF7000EA0929208974
:104EE00009EB20201FFA80F960894FEA202A484602
:104EF000FEF728FE0546002D7ED000200590049088
:104F0000039006F010032A4651464846FEF72AFE53
:104F100080460690402F23D107980A2801D0082008
:104F2000CAE7B8F1040F0DD8B8F1000F0AD001207C
:104F3000059004F10C00049000210498018004986D
:104F4000418010E0C7480088103806900698404518
:104F500002D20120039006E004F11000049002E068
:104F600006F002000590202F36D1059868B1079809
:104F70000A2801D008209FE7C6F38100C0F1040091
:104F8000069004F10C00049026E0A289E08902EB6F
:104F9000004101F11000B44A1288904209D9B24888
:104FA0000088801F079A90420AD0082084E742E1D7
:104FB00083E101F10A00079A904201D008207BE7C3
:104FC00004F110000490069107980A380699884267
:104FD00001D20120039000BF06F0100030B14FF065
:104FE000010BBAF1010F01DD052008900898002897
:104FF00038D10398002800E01AE17DD001209B49B8
:1050000008709B4908709B4880F800B09A48A0F847
:1050100000909A4880F800A099480560402F03D17D
:105020009848C0F8008002E09649069808609648C3
:10503000006830B19448006802F000FE00209249F8
:10504000086090490968491C4908480002F01EFEA2
:105050008D4908600846006840B9BBF1000F02D0D6
:1050600005200890E3E004200890E0E0402F4CD1B8
:10507000854800682B4642465146CDE9000B48461C
:10508000FEF7DEFF0890089850B97F48069A01683D
:1050900004F1100002F05BFD60207C49087043E0E1
:1050A0000898FF2840D1042079490870794880F891
:1050B00000B0794880F800A07848A0F800907848BF
:1050C000C0F8008070480068764908607649E86951
:1050D0000860012062490870744804600068008913
:1050E00020F0FF0071490968088170480068008954
:1050F00006F0F001084300E01AE06C4909680881F5
:105100006020624908700020D6E60798A0F10A02E4
:1051100004F110015C48006802F019FD00205B49B1
:10512000087007980A3806906149069808607EE082
:10513000B8F1000F07D15048A0F800904F4880F810
:1051400000A04F480560402F38D104982B464246B6
:105150005146CDE9000B4846FEF772FF08900898CB
:10516000FF2864D103204A4908704A4880F800B0FB
:10517000494880F800A04948A0F800904848C0F885
:1051800000804849049808604749E86908600120A0
:1051900033490870454804600068008920F0FF002A
:1051A00042490968088141480068008906F0F00119
:1051B00008433E490968088100207DE604982B4693
:1051C000CDE9000B51464846069AFFF77EF9089054
:1051D0000898FF282BD101212D4801702D4880F817
:1051E00000B02D4880F800A02C48A0F800902C4971
:1051F000069808602B49049808602B49286A0860C3
:10520000012017490870294804600068008920F0CF
:10521000FF0126480068018124480068008906F0E3
:10522000F0010843214909680881002044E601E0B3
:105230000820089044E000BF14480078874239D124
:1052400027B92046FFF7A4FB089035E02046FFF77A
:10525000C9FC089030E0000038860008C005002036
:105260007806002014060020160600207A0600208A
:10527000840600207B0600207C0600207E0600209D
:105280008C06002088060020680600207906002091
:10529000540600205506002056060020580600201F
:1052A0005C060020600600206406002074060020D2
:1052B000800600200320089002E00320089000BF31
:1052C00000BF0898FF2809D0CDE90084069883B272
:1052D00006F0100239460898FFF746FD0020EBE57E
:1052E0002DE9FC4781460C4615460026DF4800782C
:1052F000002854D0DE480068007A00F0E007DC485F
:105300000068007A00F01008402F3AD1D948008890
:10531000103886B2A64218D20120D7490870D74962
:105320000870D74880F80080D64804606020D649CD
:105330000870D648056032462946CD4800681030CE
:1053400002F005FCD24806601BE0042C0DD864B1C5
:10535000C74800680C30854213D022462946C4480D
:1053600000680C3002F0F3FB0BE0C148006810301D
:10537000854206D022462946BD480068103002F01A
:10538000E6FB0020B9490870B94800683346424638
:105390003946CDE900404846FFF7E6FC00BFBDE8CE
:1053A000FC872DE9FE4F044600200290207A00F091
:1053B0007F064FF00209052E05D120880A2807DA5A
:1053C0000620BDE8FE8F2088082801DA0620F8E7CD
:1053D000012E04D0032E7DD0052E7CD18DE0A08936
:1053E000052879DC002594F80CA00E222146A94856
:1053F00002F0ADFBBAF10000AAF1010101F0FF0AD1
:1054000014D1A549088080460BE04046FEF726FCF3
:10541000834608F10400A11D21F810B0C01E00F061
:10542000FF08B8F1050FF0DB122544E04FF0000B48
:105430009948008870B18F4800880C3885B204F113
:105440000C0896480088019093480088401E9249B5
:1054500008801DE05046FEF701FC83464FF4805063
:105460000190844800880E3885B204F10E08B5EB2F
:105470004B0F0ADAA91C88B2C5EB4B02411E11443E
:1054800091FBF0F1844A118002E0002082490880FB
:1054900002A843462A4601A900905046FEF710FC98
:1054A0000546BDF804007D49088072480088401B0D
:1054B000801F85B200BF25809DF80800D0B92089E3
:1054C00020F07F002081208940F002002081724876
:1054D000018802E010E0A3E00DE06181008848B19E
:1054E000208920F080002081208940F080002081E8
:1054F0004FF0820900BF96E000BFA0890190BDF87F
:105500000400B0F5805F02DA0520029087E0BDF864
:105510000400FEF717FB0746002F7ED00025032E60
:1055200021D13846FEF78CFC01460968C4F80E10FC
:1055300000233A461946BDF80400FEF71DFC0C3066
:1055400085B24C480088801FA84201D20C2554E047
:1055500004F112033A460021BDF80400FEF70CFCEA
:105560000C3085B249E094F80E803846FEF768FCAE
:1055700090F802B0D8453DDC41463846FEF75BFB6B
:1055800001460A6822618988A182A17BE1813846AF
:10559000FEF756FCB0F802A0CAF3032ABAF1080FCE
:1055A00002D0BAF1090F0AD1B8F1000F07D10D22CC
:1055B0003B4904F1160002F0CAFA1C2519E0002349
:1055C0003A464146BDF80400FEF7D6FB103085B2DE
:1055D00028480088801FA84201D2102509E004F164
:1055E00016033A464146BDF80400FEF7C5FB1030ED
:1055F00085B201E01120029000BF9DF8080050B96B
:10560000002161812580208920F07F002081208970
:10561000711C0843208102E0FFE70820029002E0AD
:105620000320029000BF00BF9DF80800A0B10A202F
:105630002080208920F07F002081208940F0070011
:1056400020810021618117489DF8081050F8211031
:10565000E16000201049088049462046FEF79FF887
:1056600008B1114804600020ABE600007806002075
:1056700074060020140600207A060020840600200C
:105680007B0600208806002079060020680600209E
:1056900080060020200A00206C0600206E060020F4
:1056A0004406002038860008C00500203249014326
:1056B000324A1160704770B5002100230F22C47870
:1056C0001CB32E4C246804F4E064C4F5E064C4F315
:1056D0000721C1F10404E3B20A4144789C40E1B2DD
:1056E0008478144021430C07210E254C0578615520
:1056F000047804F01F050124AC4005786D11AD005D
:1057000005F1E025C5F8004109E0047804F01F0523
:105710000124AC401B4D0678761145F8264070BD3B
:10572000194A0A400243154B1B1F1A60704739B1D2
:10573000124A121D12680243104B1B1D1A6006E02C
:105740000E4A121D126882430C4B1B1D1A607047D3
:10575000042808D14FF0E021096941F004014FF01D
:10576000E022116107E04FF0E021096921F0040116
:105770004FF0E022116170470000FA050CED00E0E7
:1057800000E400E080E100E080FFFF1F10B5012190
:10579000080201F05CF800214FF4807001F057F826
:1057A00010BD30B50246002000235068F84C204060
:1057B0000D790C6844EA0524204350609068F54C4C
:1057C0002040D1E903542C438D682C434D7944EAA1
:1057D000450420439060D06A20F470000C7D641E64
:1057E000E4B2234340EA0350D06230BD002101609F
:1057F000017141718160C1600161012101757047D2
:105800000021E54A1168E54A1140D0E900231A4316
:1058100083681A43C3681A431143E14AC2F8041368
:1058200070470021016041608160C160704721B113
:10583000826842F00102826003E0826822F0010285
:10584000826070470A4600214168D64B19401143D7
:10585000416070474162826270470A460021416898
:1058600021F01F0111434160704738B1CA490968EE
:1058700041F40001CA4AC2F8041306E0C6490968A7
:1058800021F40001C64AC2F80413704738B1C24976
:10589000096841F48001C24AC2F8041306E0BE4917
:1058A000096821F48001BE4AC2F804137047F0B5BC
:1058B00004460D4600200021092D11DDE068A5F108
:1058C0000A0606EB4607072606FA07F18843A5F104
:1058D0000A0606EB460603FA06F10843E0600CE010
:1058E000206905EB4507072606FA07F1884305EB13
:1058F000450603FA06F108432061072A0FDA606BB8
:10590000561E06EB86071F2606FA07F18843561E29
:1059100006EB860605FA06F10843606322E00D2ACD
:105920000FDA206BD61F06EB86071F2606FA07F153
:105930008843D61F06EB860605FA06F10843206366
:1059400010E0E06AA2F10D0606EB86071F2606FAB4
:1059500007F18843A2F10D0606EB860605FA06F16B
:105960000843E062F0BD816841F08041816070478A
:10597000014600208A6802F080420AB1012000E05E
:105980000020704721B1826842F48062826003E0A7
:10599000826822F480628260704721B1826842F09E
:1059A0000202826003E0826822F002028260704795
:1059B00010B50A4600210023416821F46041531EBE
:1059C00041EA4331416010BD21B1426842F40062B6
:1059D000426003E0426822F4006242607047014680
:1059E000C86C80B270476C48001D0068704721B1D8
:1059F000826842F48072826003E0826822F48072DE
:105A00008260704721B1826842F40072826003E0D4
:105A1000826822F400728260704738B15E4909687A
:105A200041F400515E4AC2F8041306E05A4909687D
:105A300021F400515A4AC2F804137047F0B50446E5
:105A40001546002000220026092911DDE068A1F199
:105A50000A0707EB470C072707FA0CF29043A1F15E
:105A60000A0707EB470703FA07F21043E0600CE070
:105A7000206901EB410C072707FA0CF2904301EB78
:105A8000410703FA07F210432061A06BC0F30156EF
:105A9000EF1C06F1010CA7EB0C0707EB870C1F2787
:105AA00007FA0CF29043EF1C06F1010CA7EB0C0770
:105AB00007EB870701FA07F21043A063F0BD10B5AA
:105AC0000A4600210023816B21F44011531E41EA54
:105AD0000351816310BD08B5002300930090009B23
